:020000040800F2
:10000000000001206D100008E50D0008E70D000854
:10001000E90D0008EB0D0008ED0D000800000000E0
:10002000000000000000000000000000EF0D0008CC
:10003000F10D000800000000F30D0008F50D0008A8
:10004000B5100008B5100008B5100008B51000087C
:10005000B5100008B5100008B5100008B51000086C
:10006000B5100008B5100008B5100008B51000085C
:10007000B5100008B5100008B5100008B51000084C
:10008000B5100008B5100008B5100008B51000083C
:10009000FD0D0008B5100008B5100008B5100008E7
:1000A000B5100008B5100008B5100008B51000081C
:1000B000B5100008B5100008B5100008B51000080C
:1000C000B5100008B5100008B5100008B5100008FC
:1000D000B5100008090E0008B5100008190E000838
:1000E000B5100008B5100008B5100008B5100008DC
:1000F000B5100008B5100008B5100008B5100008CC
:10010000B5100008B5100008B5100008B5100008BB
:10011000B5100008B5100008B5100008B5100008AB
:10012000B5100008B5100008B5100008B51000089B
:1001300000000000000000000000000000000000BF
:1001400000000000000000000000000000000000AF
:10015000000000000000000000000000000000009F
:10016000000000000000000000000000000000008F
:10017000000000000000000000000000000000007F
:10018000000000000000000000000000000000006F
:10019000000000000000000000000000000000005F
:1001A000000000000000000000000000000000004F
:1001B000000000000000000000000000000000003F
:1001C000000000000000000000000000000000002F
:1001D000000000000000000000000000000000001F
:0401E0005FF8E0F1F3
:1001E800844641EA000313F0030349D1403A23D37C
:1001F8000B6803604B6843608B688360CB68C3609F
:100208000B6903614B6943618B698361CB69C36186
:100218000B6A03624B6A43628B6A8362CB6AC3626E
:100228000B6B03634B6B43638B6B8363CB6BC36356
:1002380040304031403ADBD230320BD30B68036098
:100248004B6843608B688360CB68C36010301031A3
:10025800103AF3D20C3205D351F8043B40F8043B72
:10026800043AF9D2043208D0D2071CBF11F8013B76
:1002780000F8013B01D30B8803806046704700BF3C
:10028800082A13D38B07B1D010F00303AED0C3F103
:100298000403D21ADB071CBF11F8013B00F8013B2D
:1002A800A4D331F8023B20F8023B9FE7043AD9D3A4
:1002B800013A11F8013B00F8013BF9D20B780370C1
:1002C8004B7843708B7883706046704781F00041AB
:1002D80002E000BF83F0004330B54FEA41044FEA23
:1002E800430594EA050F08BF90EA020F1FBF54EABE
:1002F800000C55EA020C7FEA645C7FEA655C00F05A
:10030800E2804FEA5454D4EB5555B8BF6D420CDD2A
:100318002C4480EA020281EA030382EA000083EAAD
:10032800010180EA020281EA0303362D88BF30BD4D
:1003380011F0004F4FEA01314FF4801C4CEA1131A3
:1003480002D0404261EB410113F0004F4FEA033302
:100358004CEA133302D0524263EB430394EA050F8D
:1003680000F0A780A4F10104D5F1200E0DDB02FAFC
:100378000EFC22FA05F2801841F1000103FA0EF290
:10038800801843FA05F359410EE0A5F120050EF156
:10039800200E012A03FA0EFC28BF4CF0020C43FA87
:1003A80005F3C01851EBE37101F0004507D54FF094
:1003B800000EDCF1000C7EEB00006EEB0101B1F5E4
:1003C800801F1BD3B1F5001F0CD349085FEA30002A
:1003D8004FEA3C0C04F101044FEA445212F5800F35
:1003E80080F09A80BCF1004F08BF5FEA500C50F1D2
:1003F800000041EB045141EA050130BD5FEA4C0CB5
:10040800404141EB0101013C28BFB1F5801FE9D211
:1004180091F0000F04BF01460020B1FA81F308BF34
:100428002033A3F10B03B3F120020CDA0C3208DD00
:1004380002F1140CC2F10C0201FA0CF021FA02F1DB
:100448000CE002F11402D8BFC2F1200C01FA02F14B
:1004580020FA0CFCDCBF41EA0C019040E41AA2BF70
:1004680001EB0451294330BD6FEA04041F3C1CDA38
:100478000C340EDC04F11404C4F1200220FA04F058
:1004880001FA02F340EA030021FA04F345EA030102
:1004980030BDC4F10C04C4F1200220FA02F001FAC4
:1004A80004F340EA0300294630BD21FA04F0294646
:1004B80030BD94F0000F83F4801306BF81F48011DF
:1004C8000134013D4EE77FEA645C18BF7FEA655C52
:1004D80029D094EA050F08BF90EA020F05D054EA24
:1004E800000C04BF1946104630BD91EA030F1EBF29
:1004F8000021002030BD5FEA545C05D1400049412D
:1005080028BF41F0004130BD14F580043CBF01F51F
:10051800801130BD01F0004545F0FE4141F4700105
:100528004FF0000030BD7FEA645C1ABF19461046E0
:100538007FEA655C1CBF0B46024650EA013406BFE1
:1005480052EA033591EA030F41F4002130BD00BFA0
:1005580090F0000F04BF0021704730B54FF480645D
:1005680004F132044FF000054FF0000150E700BFDE
:1005780090F0000F04BF0021704730B54FF480643D
:1005880004F1320410F0004548BF40424FF000012A
:100598003EE700BF42004FEAE2014FEA31014FEA6D
:1005A80002701FBF12F07F4393F07F4F81F06051BC
:1005B800704732F07F4208BF704793F07F4F04BF07
:1005C80041F40021704730B54FF4607401F00045E4
:1005D80021F000411CE700BF50EA010208BF704744
:1005E80030B54FF000050AE050EA010208BF704735
:1005F80030B511F0004502D5404261EB41014FF49E
:10060800806404F132045FEA915C3FF4D8AE4FF0A5
:1006180003025FEADC0C18BF03325FEADC0C18BF88
:10062800033202EBDC02C2F1200300FA03FC20FAD9
:1006380002F001FA03FE40EA0E0021FA02F1144426
:10064800BDE600BF70B54FF0FF0C4CF4E06C1CEA3F
:1006580011541DBF1CEA135594EA0C0F95EA0C0FB0
:1006680000F0DEF82C4481EA030621EA4C5123EA23
:100678004C5350EA013518BF52EA033541F4801152
:1006880043F4801338D0A0FB02CE4FF00005E1FB05
:1006980002E506F00042E0FB03E54FF00006E1FB4F
:1006A80003569CF0000F18BF4EF0010EA4F1FF0492
:1006B800B6F5007F64F5407404D25FEA4E0E6D41D2
:1006C80046EB060642EAC62141EA55514FEAC520E3
:1006D80040EA5E504FEACE2EB4F1FD0C88BFBCF55F
:1006E800E06F1ED8BEF1004F08BF5FEA500E50F110
:1006F800000041EB045170BD06F0004646EA0101D6
:1007080040EA020081EA0301B4EB5C04C2BFD4EB07
:100718000C0541EA045170BD41F480114FF0000E00
:10072800013C00F3AB8014F1360FDEBF002001F06E
:10073800004170BDC4F10004203C35DA0C341BDCE8
:1007480004F11404C4F1200500FA05F320FA04F0BA
:1007580001FA05F240EA020001F0004221F00041EE
:1007680010EBD37021FA04F642EB06015EEA430E61
:1007780008BF20EAD37070BDC4F10C04C4F1200591
:1007880000FA04F320FA05F001FA04F240EA020044
:1007980001F0004110EBD37041F100015EEA430E15
:1007A80008BF20EAD37070BDC4F1200500FA05F235
:1007B8004EEA020E20FA04F301FA05F243EA0203B4
:1007C80021FA04F001F0004121FA04F220EA0200C3
:1007D80000EBD3705EEA430E08BF20EAD37070BD09
:1007E80094F0000F0FD101F00046400041EB0101E9
:1007F80011F4801F08BF013CF7D041EA060195F0CB
:10080800000F18BF704703F00046520043EB030384
:1008180013F4801F08BF013DF7D043EA0603704771
:1008280094EA0C0F0CEA135518BF95EA0C0F0CD07C
:1008380050EA410618BF52EA4306D1D181EA0301C2
:1008480001F000414FF0000070BD50EA410606BFBC
:100858001046194652EA430619D094EA0C0F02D101
:1008680050EA013613D195EA0C0F05D152EA033646
:100878001CBF104619460AD181EA030101F0004164
:1008880041F0FE4141F470014FF0000070BD41F0AD
:10089800FE4141F4780170BD70B54FF0FF0C4CF487
:1008A800E06C1CEA11541DBF1CEA135594EA0C0FA6
:1008B80095EA0C0F00F0A7F8A4EB050481EA030EF3
:1008C80052EA03354FEA013100F088804FEA0333DA
:1008D8004FF0805545EA131343EA12634FEA0222A8
:1008E80045EA111545EA10654FEA00260EF0004169
:1008F8009D4208BF964244F1FD0404F5407402D2BB
:100908005B084FEA3202B61A65EB03055B084FEA4B
:1009180032024FF480104FF4002CB6EB020E75EB48
:10092800030E22BFB61A754640EA0C005B084FEA70
:100938003202B6EB020E75EB030E22BFB61A7546ED
:1009480040EA5C005B084FEA3202B6EB020E75EB38
:10095800030E22BFB61A754640EA9C005B084FEAB0
:100968003202B6EB020E75EB030E22BFB61A7546BD
:1009780040EADC0055EA060E18D04FEA051545EAAC
:1009880016754FEA06164FEAC30343EA52734FEA55
:10099800C2025FEA1C1CC0D111F4801F0BD141EACE
:1009A80000014FF000004FF0004CB6E711F4801F33
:1009B80004BF01430020B4F1FD0C88BFBCF5E06F13
:1009C8003FF6AFAEB5EB030C04BFB6EB020C5FEA23
:1009D800500C50F1000041EB045170BD0EF0004E78
:1009E8004EEA113114EB5C04C2BFD4EB0C0541EAAA
:1009F800045170BD41F480114FF0000E013C90E6A7
:100A080045EA060E8DE60CEA135594EA0C0F08BF6A
:100A180095EA0C0F3FF43BAF94EA0C0F0AD150EA69
:100A280001347FF434AF95EA0C0F7FF425AF1046FC
:100A380019462CE795EA0C0F06D152EA03353FF424
:100A4800FDAE1046194622E750EA410618BF52EAA1
:100A580043067FF4C5AE50EA41047FF40DAF52EA75
:100A680043057FF4EBAE12E74FF0FF3C06E000BF12
:100A78004FF0010C02E000BF4FF0010C4DF804CD1F
:100A88004FEA410C7FEA6C5C4FEA430C18BF7FEADF
:100A98006C5C1BD001B050EA410C0CBF52EA430C0D
:100AA80091EA030F02BF90EA020F0020704710F18D
:100AB800000F91EA030F58BF994208BF90422CBF1C
:100AC800D8176FEAE37040F0010070474FEA410C15
:100AD8007FEA6C5C02D150EA013C07D14FEA430C33
:100AE8007FEA6C5CD6D152EA033CD3D05DF8040BA4
:100AF800704700BF8446104662468C4619466346D6
:100B080000E000BF01B5FFF7B7FF002848BF10F1AC
:100B1800000F01BD4DF808EDFFF7F4FF0CBF0120F1
:100B280000205DF808FB00BF4DF808EDFFF7EAFF6D
:100B380034BF012000205DF808FB00BF4DF808ED28
:100B4800FFF7E0FF94BF012000205DF808FB00BF1D
:100B58004DF808EDFFF7CEFF94BF012000205DF8A7
:100B680008FB00BF4DF808EDFFF7C4FF34BF0120B4
:100B780000205DF808FB00BF4FEA410C7FEA6C5C7F
:100B880002D150EA013C0AD14FEA430C7FEA6C5C7F
:100B980002D152EA033C02D14FF0000070474FF0F7
:100BA800010070474FEA410212F5001215D211D523
:100BB8006FF47873B3EB625212D94FEAC12343F052
:100BC800004343EA505311F0004F23FA02F018BFD4
:100BD800404270474FF00000704750EA013005D19D
:100BE80011F0004008BF6FF0004070474FF0000060
:100BF800704700BF0348044B834202D0034B03B144
:100C080018477047F4060020F40600200000000092
:100C18000548064B1B1AD90F01EBA301491002D056
:100C2800034B03B118477047F4060020F406002070
:100C38000000000010B5064C237843B9FFF7DAFF2F
:100C4800044B13B10448AFF300800123237010BD97
:100C5800281A0020000000001CA1000808B5054B58
:100C68001BB105490548AFF30080BDE80840FFF710
:100C7800CFBF00BF000000002C1A00201CA10008F4
:100C880082B00A4B9A6942F008029A619A6902F0A6
:100C980008020092009A9A6942F004029A619B69DC
:100CA80003F004030193019B02B070470010024057
:100CB80000B583B00A4BDA6942F40002DA61DB69F5
:100CC80003F400030193019B00221146142000F055
:100CD8007FFA142000F08CFA03B05DF804FB00BF23
:100CE8000010024072B6FEE700B597B02822002136
:100CF8000CA803F0D7FA00230793089309930A93E3
:100D08000B93019302930393049305930693012293
:100D18000C924FF480330D93109202221392149385
:100D28004FF4E01315930CA800F090FCC0B90F2302
:100D3800079302210891002309934FF480620A92D5
:100D48000B9307A800F0B4FE60B9102301930023A9
:100D5800069301A800F088FF30B917B05DF804FBCE
:100D6800FFF7C0FFFFF7BEFFFFF7BCFF08B500F0B5
:100D7800C5F9FFF7B9FFFFF783FF00F0B1F800F0FE
:100D8800C9F80449002002F0ADFA002002F000FB87
:100D9800FBE700BF005C004082B00E4B9A6942F04E
:100DA80001029A619A6902F001020092009ADA69D6
:100DB80042F08052DA61DB6903F080530193019BB2
:100DC800054A536823F0E06343F00073536002B0B0
:100DD800704700BF0010024000000140FEE7FEE738
:100DE800FEE7FEE7FEE770477047704708B500F07A
:100DF80097F908BD08B5002002F01EFE08BD0000E6
:100E080008B5024801F0CAF908BD00BF901A0020D1
:100E180008B5024801F0C2F908BD00BF481A002011
:100E28000120704708B503F0E1FA162303604FF07C
:100E3800FF3008BD08B54FF0FF31FFF7F3FFFEE7BD
:100E480070B50C461646002506E0AFF30080214633
:100E580001F8010B01350C46B542F6DB304670BD92
:100E680070B50C461646002504E014F8010B00F096
:100E7800E9F80135B542F8DB304670BD4FF0FF3078
:100E880070474FF400534B600020704701207047B3
:100E98000020704710B503460C4A0D490D480068FC
:100EA80040B10C4800680344521A934206D8094AD4
:100EB800136010BD0748084C0460F2E703F096FA87
:100EC8000C2303604FF0FF30F3E700BF0000012060
:100ED80000040000441A0020C81F002070470000CA
:100EE80008B50A480A4B03604FF4E1334360002316
:100EF8008360C36003610C2242618361C36101F0B6
:100F08002AF800B908BDFFF7EDFEFBE7901A0020AC
:100F18000038014008B50A480A4B03604FF4E13332
:100F2800436000238360C36003610C2242618361D4
:100F3800C36101F010F800B908BDFFF7D3FEFBE765
:100F4800481A00200048004030B589B000230493B7
:100F58000593069307930368354A934204D0354AAC
:100F6800934233D009B030BD334B9A6942F4804282
:100F78009A619A6902F480420092009A9A6942F052
:100F880004029A619B6903F004030193019B4FF4E7
:100F9800007304930223059303230793274D04A9A1
:100FA800284600F021FA4FF4806304930024059446
:100FB800069404A9284600F017FA2246214625205F
:100FC80000F006F9252000F013F9CBE71A4BDA698F
:100FD80042F48022DA61DA6902F480220292029AEB
:100FE8009A6942F008029A619B6903F00803039327
:100FF800039B4FF480630493022305930323079311
:101008000F4D04A9284600F0EFF94FF4006304934C
:1010180000240594069404A9284600F0E5F9224620
:101028002146272000F0D4F8272000F0E1F899E7BE
:10103800003801400048004000100240000801400C
:10104800000C014000B583B001904FF6FF730122F8
:1010580001A9034800F0AFFF019803B05DF804FB55
:10106800481A0020FFF73AFF0B480C490C4A0023A6
:1010780002E0D458C4500433C4188C42F9D3094A46
:10108800094C002301E013600432A242FBD303F0B1
:10109800B3F9FFF76BFE704700000020F40600204C
:1010A80038A80008281A0020C81F0020FEE7000002
:1010B80010B504460E4B1A784FF47A73B3FBF2F36B
:1010C8000C4A1068B0FBF3F000F0A0F868B90F2CD8
:1010D80001D901200AE0002221464FF0FF3000F03C
:1010E80077F8054B1C60002000E0012010BD00BF10
:1010F80004000020000000200800002008B5074A6E
:10110800136843F010031360032000F04FF80F201A
:10111800FFF7CEFFFFF740FE002008BD0020024089
:10112800034A1168034B1B780B441360704700BFD8
:10113800D81A002004000020014B1868704700BF2F
:10114800D81A0020002808DB0901C9B200F1604064
:1011580000F5614080F80013704700F00F000901A6
:10116800C9B2014B1954704714ED00E000B500F006
:101178000700C0F1070CBCF1040F28BF4FF0040CA6
:10118800031D062B0FD9C31E4FF0FF3E0EFA0CF0BD
:1011980021EA000199400EFA03FE22EA0E0241EA12
:1011A80002005DF804FB0023EEE70000074AD3685D
:1011B80023F4E0631B041B0C000200F4E06003430B
:1011C80043F0BF6343F40033D360704700ED00E0A1
:1011D80010B50446054BD868C0F30220FFF7C6FFD8
:1011E80001462046FFF7AEFF10BD00BF00ED00E04E
:1011F800002807DB00F01F02400901239340024A40
:1012080042F82030704700BF00E100E00138B0F13B
:10121800807F0BD24FF0E0235861054AF02182F815
:1012280023100020986107221A6170470120704737
:1012380000ED00E0034690F82120D2B2022A06D041
:1012480004228263002280F8202001207047016870
:101258000A6822F00E020A6001680A6822F0010298
:101268000A60026CC06B012101FA02F2426083F845
:101278002110002083F820007047000008B590F87E
:101288002130DBB2022B03D004238363012008BD85
:101298000268136823F00E0313600268136823F0D2
:1012A8000103136003684C4A93424ED9783A93423B
:1012B80024D01432934230D0143293422FD01432B7
:1012C80093422FD0143293422FD0143293422FD00E
:1012D800143293422FD002F5627293422ED0143208
:1012E80093422DD0143293422CD01432934202D020
:1012F8004FF4803203E04FF4805200E00122374B74
:101308005A60012380F82130002380F82030436B95
:10131800002B5ED098470020B9E71022EFE74FF482
:101328008072ECE74FF48052E9E74FF48032E6E749
:101338004FF48012E3E74FF08072E0E70122DEE726
:101348001022DCE74FF48072D9E7254A934224D073
:101358001432934225D01432934224D0143293424B
:1013680024D01432934224D01432934224D014321D
:10137800934224D002F56272934223D014329342EE
:1013880022D01432934221D01432934202D04FF427
:10139800803203E04FF4805200E00122114B5A6082
:1013A800AFE71022FAE74FF48072F7E74FF4805264
:1013B800F4E74FF48032F1E74FF48012EEE74FF094
:1013C8008072EBE70122E9E71022E7E74FF4807229
:1013D800E4E700205BE700BF800002400004024011
:1013E800080002400000024070B582B00024A44604
:1013F800ABE0854DAB4214D00CD8A5F58015AB42B7
:101408000FD005F57025AB420BD0A5F58015AB4282
:1014180010D106E07D4DAB4203D005F58035AB42D7
:1014280008D18B68002B5AD0012B53D04261082475
:1014380000E0CC68BEF1FF0F53D806464FEA8C0295
:1014480033680F25954023EA050304FA02F2134393
:1014580033604B6813F0805F75D06D4B9A6942F02A
:1014680001029A619B6903F001030193019B4FEA12
:101478009C02951C674B53F825600CF00305AD00E2
:101488000F23AB4026EA0306634B984230D003F59E
:101498008063984200F0968003F58063984200F0DC
:1014A800938003F58063984200F0908003F5806391
:1014B800984200F08D8003F58063984216D0062389
:1014C80017E0CC680434B5E7CC680834B2E7CC68D8
:1014D8000C34AFE702610824ACE70024AAE704242F
:1014E800A8E7061DACF108029200A9E7052300E071
:1014F8000023AB4033430232464D45F822304B6857
:1015080013F4801F66D0454A936843EA0E0393603C
:101518004B6813F4001F63D0404AD36843EA0E03B4
:10152800D3604B6813F4003F60D03C4A536843EAE9
:101538000E0353604B6813F4803F5DD0374A13683D
:1015480043EA0E0313600CF1010C0B6833FA0CF23A
:1015580058D0012202FA0CF203EA020E32EA03031F
:10156800F1D14B68122B3FF644AF122B3FF662AF16
:1015780001A555F823F000BF2B1400083B14000800
:10158800D1140008E31400083D1400083D140008B5
:101598003D1400083D1400083D1400083D140008DF
:1015A8003D1400083D1400083D1400083D140008CF
:1015B8003D1400083D1400083D140008CB14000831
:1015C800D7140008012394E7022392E7032390E746
:1015D80004238EE7114A936823EA0E03936097E782
:1015E8000E4AD36823EA0E03D3609AE70B4A53687E
:1015F80023EA0E0353609DE7084A136823EA0E03A3
:101608001360A0E702B070BD000022100000311086
:1016180000100240000001400008014000040140A1
:1016280082B0084B1B68084AA2FB03235B0A00FB35
:1016380003F3019300BF019B5A1E0192002BF9D1BD
:1016480002B0704700000020D34D6210002800F05F
:10165800F18170B582B00446036813F0010F2CD0F5
:10166800994B5B6803F00C03042B1DD0964B5B6809
:1016780003F00C03082B12D06368B3F5803F41D008
:10168800002B55D103F1804303F504331A6822F483
:1016980080321A601A6822F480221A6037E08A4B76
:1016A8005B6813F4803FE7D0874B1B6813F4003F57
:1016B80003D06368002B00F0BF81236813F0020F8A
:1016C80075D0814B5B6813F00C0F5FD07E4B5B6865
:1016D80003F00C03082B54D02369002B00F08A80F8
:1016E8007A4B01221A60FFF727FD0546764B1B68E7
:1016F80013F0020F75D1FFF71FFD401B0228F5D923
:1017080003209EE1704A136843F4803313606368D2
:1017180043B3FFF711FD05466B4B1B6813F4003FFD
:10172800CBD1FFF709FD401B6428F5D9032088E1D8
:10173800B3F5A02F09D0644B1A6822F480321A60DE
:101748001A6822F480221A60E1E703F18043A3F5C6
:101758003C331A6842F480221A601A6842F48032D4
:101768001A60D4E7FFF7E8FC0546574B1B6813F4EB
:10177800003FA2D0FFF7E0FC401B6428F5D9032006
:101788005FE1514B5B6813F4803FA5D14E4B1B685A
:1017980013F0020F03D02369012B40F04F814A4A0E
:1017A800136823F0F803616943EAC10313602368EF
:1017B80013F0080F33D0A369002B5CD0434B0122F0
:1017C800C3F88024FFF7B8FC05463F4B5B6A13F06B
:1017D800020F21D1FFF7B0FC401B0228F5D90320E6
:1017E8002FE1394A136823F0F803616943EAC1031A
:1017F8001360DCE7354B00221A60FFF79DFC0546B5
:10180800314B1B6813F0020FD1D0FFF795FC401B3A
:101818000228F5D9032014E10120FFF701FF23680E
:1018280013F0040F00F09680274BDB6913F0805FFC
:1018380034D1254BDA6942F08052DA61DB6903F072
:1018480080530193019B0125214B1B6813F4807F72
:1018580026D0E368012B3DD0002B53D103F1804300
:1018680003F504331A6A22F001021A621A6A22F096
:1018780004021A6233E0154B0022C3F88024FFF7F4
:101888005BFC0546104B5B6A13F0020FC7D0FFF7ED
:1018980053FC401B0228F5D90320D2E00025D3E7EA
:1018A8000B4A136843F480731360FFF745FC064640
:1018B800074B1B6813F4807FCBD1FFF73DFC801BDF
:1018C8006428F5D90320BCE0001002400000424221
:1018D800007000405F4A136A43F001031362E36833
:1018E80033B3FFF729FC06465A4B1B6A13F0020F65
:1018F8002FD1FFF721FC801B41F288339842F3D99E
:1019080003209EE0052B09D0524B1A6A22F00102EF
:101918001A621A6A22F004021A62E0E74D4B1A6A48
:1019280042F004021A621A6A42F001021A62D6E709
:10193800FFF702FC0646474B1B6A13F0020F08D05C
:10194800FFF7FAFB801B41F288339842F3D9032052
:1019580077E0E5B9E369002B72D03E4A526802F09D
:101968000C02082A56D0022B17D03B4B00221A66CD
:10197800FFF7E2FB0446374B1B6813F0007F47D0A4
:10198800FFF7DAFB001B0228F5D9032059E0314A9A
:10199800D36923F08053D361DCE72F4B00221A660A
:1019A800FFF7CAFB05462B4B1B6813F0007F06D0D8
:1019B800FFF7C2FB401B0228F5D9032041E0236A48
:1019C800B3F5803F1AD023494B6823F47413226A75
:1019D800606A024313434B601F4B01221A66FFF7EC
:1019E800ABFB04461B4B1B6813F0007F0ED1FFF7BF
:1019F800A3FB001B0228F5D9032022E0154A5368EF
:101A080023F40033A1680B435360DCE7002018E09F
:101A1800002016E0012B16D00E4B5B6803F48031D2
:101A2800226A914211D103F47013626A93420ED173
:101A3800002006E001207047012002E0012000E0BC
:101A4800002002B070BD0120FBE70120F9E701206A
:101A5800F7E700BF00100240000042420F4B5B68EE
:101A680003F00C02082A01D00D487047C3F38342E3
:101A78000C49885C13F4803F0BD0084B5B68C3F3B8
:101A88004043094AD35C064A02FB00F0B0FBF3F07E
:101A98007047064B03FB00F0704700BF0010024080
:101AA80000127A0054A1000850A1000800093D0066
:101AB800002800F0A08070B50D460446524B1B6804
:101AC80003F007038B420BD24F4A136823F0070336
:101AD8000B431360136803F007038B4240F08D80BB
:101AE800236813F0020F17D013F0040F04D0474AED
:101AF800536843F4E0635360236813F0080F04D07D
:101B0800424A536843F460535360404A536823F091
:101B1800F003A1680B435360236813F0010F31D021
:101B28006368012B20D0022B25D0384A126812F0A6
:101B3800020F64D035494A6822F0030213434B6010
:101B4800FFF7FAFA0646314B5B6803F00C0362684C
:101B5800B3EB820F16D0FFF7EFFA801B41F2883300
:101B68009842F0D9032045E0284A126812F4003F51
:101B7800E0D101203EE0254A126812F0007FD9D159
:101B8800012037E0204B1B6803F00703AB420AD95A
:101B98001D4A136823F007032B431360136803F0EF
:101BA8000703AB422DD1236813F0040F06D0174A60
:101BB800536823F4E063E1680B435360236813F030
:101BC800080F07D0114A536823F46053216943EA88
:101BD800C1035360FFF742FF0C4B5B68C3F3031369
:101BE8000B4AD35CD8400B4B18600B4B1868FFF7B7
:101BF8005FFA002070BD012070470120FAE701203C
:101C0800F8E70120F6E700BF00200240001002407C
:101C180040A100080000002008000020014B1868BF
:101C2800704700BF0000002008B5FFF7F7FF044B1E
:101C38005B68C3F30223034AD35CD84008BD00BFE6
:101C48000010024038A1000808B5FFF7E7FF044B71
:101C58005B68C3F3C223034AD35CD84008BD00BF06
:101C68000010024038A1000870B582B0044603682D
:101C780013F0010F36D03F4BDB6913F0805F49D179
:101C88003C4BDA6942F08052DA61DB6903F0805339
:101C98000193019B0125384B1B6813F4807F3BD0CF
:101CA800344B1B6A13F4407313D0626802F4407219
:101CB8009A420ED02F4A136A23F440702F49012606
:101CC800C1F840640026C1F84064106213F0010FA7
:101CD80036D1284A136A23F4407361680B431362B0
:101CE800002D3ED1236813F0020F06D0214A536815
:101CF80023F44043A1680B435360236813F0100F8B
:101D080034D01C4A536823F4800361690B43536041
:101D180000202CE00025BEE7174A136843F48073BF
:101D28001360FFF709FA0646134B1B6813F4807F0C
:101D3800B6D1FFF701FA801B6428F5D9032016E015
:101D4800FFF7FAF906460B4B1B6A13F0020FC0D1D6
:101D5800FFF7F2F9801B41F288339842F3D9032048
:101D680005E0D36923F08053D361BBE7002002B0BC
:101D780070BD00BF001002400070004000004242E9
:101D8800026802F10C0353E8003F23F490730C320D
:101D980042E800310029F3D1026802F1140353E844
:101DA800003F23F00103143242E800310029F3D147
:101DB800036B012B05D0202380F8423000230363F6
:101DC8007047026802F10C0353E8003F23F0100348
:101DD8000C3242E800310029F3D1ECE790F84130A9
:101DE800DBB2212B01D0022070478368B3F5805FF6
:101DF80017D0036A5A1C02621A7803685A60C38CA7
:101E08009BB2013B9BB2C3844BB90268D36823F0F1
:101E18008003D3600268D36843F04003D360002096
:101E280070470369002BE4D1036A1B880268C3F377
:101E380008035360036A02330362E0E710B50446FF
:101E48000268136923F44053C1680B431361836824
:101E58000269134342691A430168CB6823F4B053FB
:101E680023F00C031343CB600268536923F44073D7
:101E780081690B4353610268134B9A4220D0FFF7E4
:101E8800D3FE024602EB820202EB820263689B00E9
:101E9800B2FBF3F20D48A0FB02314909642303FBAE
:101EA80011231B013233A0FB03035B0903F0F0028B
:101EB80002EB011203F00F03216813448B6010BD7D
:101EC800FFF7C2FE0246DDE7003801401F85EB51EF
:101ED8002DE9F04383B005460E4617469946DDF8CE
:101EE80028802B681C6836EA04040CBF01240024EF
:101EF800BC4228D1B8F1FF3FF3D0FFF71DF9A0EBA2
:101F08000900404523D8B8F1000F22D02B68DA68C1
:101F180012F0040FE5D0802EE3D0402EE1D01A68ED
:101F280012F0080FDDD0002401941A6801925B6852
:101F38000193019B2846FFF723FF08236B6485F86C
:101F48004040012000E0002003B0BDE8F0830320FA
:101F5800FAE70320F8E760B310B5044690F841307B
:101F680013B3242384F841302268D36823F4005340
:101F7800D3602046FFF762FF2268136923F4904379
:101F880013612268536923F02A0353612268D368D6
:101F980043F40053D36000206064202384F8413068
:101FA80084F84230606310BD80F84030FEF7CCFF03
:101FB800D7E7012070472DE9F04182B01E4690F81E
:101FC8004130DBB2202B56D104460D4690460029FD
:101FD80055D00AB901204FE000234364212380F83B
:101FE8004130FFF7A9F80746A4F82480A4F8268012
:101FF800A368B3F5805F02D04FF0000814E02369AE
:102008002BB34FF000080FE0202384F84130032061
:1020180032E038F8023B2268C3F308035360E28CCD
:1020280092B2013A92B2E284E38C9BB293B10096E9
:102038003B46002280212046FFF74AFF0028E3D1D3
:10204800002DE6D015F8012B23685A60E7E7A8466B
:102058000025E9E700963B46002240212046FFF78D
:1020680037FF18B9202384F8413005E0202384F88D
:102078004130032000E0022002B0BDE8F0810120D9
:10208800FAE7704708B50168CA6822F04002CA60DA
:10209800202280F84120FFF7F4FF002008BD704798
:1020A800704708B5406A0023C385C384FFF7F8FF6B
:1020B80008BD704790F84230DBB2222B69D18368A3
:1020C800B3F5805F4FD0826AB3F5805F04D0002BF0
:1020D80056D10369002B53D103685B681370836A78
:1020E80001338362C38D9BB2013B9BB2C385002B36
:1020F80051D100B583B00268D36823F02003D360C0
:102108000268D36823F48073D3600268536923F0AC
:1021180001035361202380F8423000234363036B9B
:10212800012B33D100230363026802F10C0353E847
:10213800003F23F010030C3242E800310029F3D1AC
:1021480003681A6812F0100F06D0002201921A686C
:1021580001925B680193019B818DFFF7AAFF002024
:1021680003B05DF804FB0269002AACD1826A0368F7
:102178005B68C3F308031380836A02338362B1E7A1
:1021880003685B6803F07F031370A8E7FFF787FF16
:10219800E5E70220704700207047000010B582B0C4
:1021A800044602681368D068516913F00F0F09D10B
:1021B80013F0200F0CD010F0200F09D02046FFF7A5
:1021C80079FF16E011F0010115D110F4907F12D1BA
:1021D800216B012979D013F0800F03D010F0800F04
:1021E80040F0138113F0400F03D010F0400F40F07F
:1021F800108102B010BD13F0010F06D010F4807FDB
:1022080003D0626C42F00102626413F0040F04D040
:1022180019B1626C42F00202626413F0020F04D03A
:1022280019B1626C42F00402626413F0080F07D01F
:1022380010F0200F00D119B1626C42F008026264FC
:10224800626C002AD5D013F0200F02D010F0200FB6
:1022580029D123685B6903F04003626C12F0080F10
:1022680000D163B32046FFF78BFD23685B6913F049
:10227800400F20D0226802F1140353E8003F23F0F6
:102288004003143242E800310029F3D1E36B73B103
:10229800624A5A63E06BFEF7F1FF0028A9D0E06BB1
:1022A800436B9847A5E72046FFF704FFD1E7204690
:1022B800FFF7F6FE9DE72046FFF7F2FE99E7204676
:1022C800FFF7EEFE0023636493E713F0100F82D04C
:1022D80010F0100F3FF47FAF0023019313680193B0
:1022E80053680193019B536913F0400F51D0E26B7F
:1022F80013685B689BB2002B3FF47BAFA18D9942BA
:102308007FF677AFE3859369202B37D0226802F1F7
:102318000C0353E8003F23F480730C3242E8003189
:102328000029F3D1226802F1140353E8003F23F097
:102338000103143242E800310029F3D1226802F186
:10234800140353E8003F23F04003143242E80031FD
:102358000029F3D1202384F8423000232363226824
:1023680002F10C0353E8003F23F010030C3242E85B
:1023780000310029F3D1E06BFEF75CFF02236363B1
:10238800A18DE38D9BB2C91A89B22046FFF791FE51
:102398002FE7A18DE38D9BB2C91A89B2E38D9BB259
:1023A800002B3FF426AF00293FF423AF226802F147
:1023B8000C0353E8003F23F490730C3242E80030DA
:1023C8000028F3D1226802F1140353E8003F23F0F8
:1023D8000103143242E800300028F3D1202384F8A6
:1023E800423000232363226802F10C0353E8003FC4
:1023F80023F010030C3242E800300028F3D1022306
:1024080063632046FFF755FEF3E62046FFF7E6FC38
:10241800EFE62046FFF736FEEBE600BFAB200008EC
:102428000846034B0B6000234B608B60CB60704702
:1024380061240008704700236FF07F0111706FF06E
:102448007B0151701E219170D370082191715371D5
:1024580013717047704770472DE9F04182B0054607
:102468000C46174698468E88F6B291F801C0ACF132
:10247800200CBCF1030F37D8DFE80CF0021F103135
:10248800CA8839686846FDF7ABFE6A463146284671
:10249800FFF7D0FF002002B0BDE8F0814A88C2F300
:1024A800400402F00102314600F066FF2246314640
:1024B8002846FFF7CFFF0020EDE76A463146FFF7D1
:1024C800BAFF3B6800981860BDF804109DF8062014
:1024D80099809A710723C8F800300020DBE731465D
:1024E800FFF7B9FF0020D6E7064801F025FE61781E
:1024F800054801F021FE054801F01EFE4FF0FF30AF
:10250800C9E700BF64A1000874A100089CA10008E5
:10251800054B4FF44D7202FB003393F82802003844
:1025280018BF0120704700BFF406002070B50C7872
:1025380004F00304012C26D0022C29D14FF0000E00
:102548002DE00134E4B2244D4FF44D7C0CFB005CCB
:102558009CF86C52A54218D94FF0CD0C0CFB004CDE
:102568000CF18A0C1C4D05EB8C056D68002DE8D02C
:102578002E68002EE5D095F818C08D88EDB2AC45D0
:10258800DFD1B04727E00024DDE74FF0FF3022E03D
:102598004FF0FF301FE00EF1010E5FFA8EFE0E4C79
:1025A8004FF44D7505FB004C9CF86C42744510D9EE
:1025B8004FF0CD0C0CFB00EC0CF18A0C064C04EB34
:1025C8008C046468002CE6D06468002CE3D0A04733
:1025D80001E04FF0FF3070BDF40600202DE9F04116
:1025E80005460F461646002408E02BB1DB681BB1F0
:1025F80032463946284698470134E4B2124B4FF424
:102608004D7202FB053393F86C32A34219D9CD23DE
:1026180003FB05438A330C4A02EB83035B68002EF5
:10262800E3D0002BE8D0D3F80C80B8F1000FE3D04A
:10263800B2781B7E9A42DFD1324639462846C047D7
:10264800DAE7BDE8F08100BFF406002010B58B780A
:1026580091F90220002A25DBB1F804C003F07F03BA
:10266800CCF30A0C204C03EB43034FF44D7200FBF0
:1026780002F202EB83032344A3F8D2C2B1F804C0E8
:102688008B7803F07F03CCF3C12C03EB430302EBFD
:102698008302144484F8D1C200F0F0FEB0FA80F04E
:1026A800400910BDB1F804C003F07F03CCF30A0C55
:1026B8000D4C03EB43034FF44D7200FB02F202EBA7
:1026C80083032344A3F872C2B1F804C08B7803F0E3
:1026D8007F03CCF3C12C03EB430302EB83021444C6
:1026E80084F871C2D8E700BFF40600202DE9F84F3E
:1026F800824688469346194B4FF44D7202FB0033CD
:102708009C6900252E462846FF27B94608E094F81C
:10271800039023781C4423781D44AE4200D8DEB9C8
:102728002378CBB16378042BF1D0052B0BD0022B87
:10273800EFD16779B845ECD1A678E37846EA032665
:1027480000250120E5E74745E3D1D945E1D12146F8
:102758005046FFF77BFFDCE7BDE8F88FF406002062
:1027680070B50C0ACDB2032C0CD00F2C1FD0032C43
:102778005DD830494FF44D7606FB001189694FF05A
:10278800000E27E0EE2DF0D12A494FF44D7404FBDA
:102798000011C969002946D009681160254A04FB5F
:1027A8000022D269126812781A6001262DE02149A8
:1027B8004FF44D7404FB0011496A002935D00968AB
:1027C80011601C4A04FB0022526A52681A600126F2
:1027D8001BE00144087840B191F801C0A445F8D144
:1027E80075450AD00EF1010EF3E700267EB1022CE2
:1027F80005D0072C03D0186006E00126F6E7887894
:10280800CC7840EA042018601160304670BD0A4850
:1028180001F092FC2A462146084801F08DFC084840
:1028280001F08AFCF1E70026EFE70026EDE7002635
:10283800EBE700BFF4060020A4A10008B4A100083B
:102848009CA100082DE9F04106461D464F8891F8E5
:1028580001C0BCF1090F61D8DFE80CF0050E600E6D
:10286800602B32603844116800230B701268537073
:1028780002232B60012452E0012F03D000232B6098
:1028880001244CE0BCF1030F09D0264B4FF44D72E4
:1028980002FB0033D3F830330A219847EEE7214B87
:1028A8004FF44D7202FB0033D3F8303309219847B7
:1028B800E4E7F9B200F0D2FD00232B6001242EE0FA
:1028C8002B463946FFF74CFF044628E04FF44D737A
:1028D80000FB03F303F50A7312490B441360012448
:1028E8002C601CE0FFB200223946FFF7FFFE0446C9
:1028F80010B900232B6012E00A4B4FF44D7202FB13
:10290800063888F82872002207213046FFF766FE4D
:10291800D8F83033072130469847EAE700242046A4
:10292800BDE8F081F406002010B582B004460948DD
:1029380001F002FCA388E288019200936388627820
:102948002178054801F0F8FB044801F0F5FB02B0D6
:1029580010BD00BFE8A10008F8A100089CA100086C
:102968002DE9F84305460E4617469846544B4FF452
:102978004D7202FB0033DB69002B4AD049781A7983
:10298800914201D0002470E0B288042A0DD0052AB3
:1029980022D04C4801F0D0FB4B4801F033FC4B48A7
:1029A80001F0CAFB4FF0FF3386E09B683B60444B65
:1029B8004FF44D7202FB0033DB699A681378517843
:1029C80003EB0123917803EB0143D27803EB026315
:1029D800C8F8003000236FE0DB68728853F82230B3
:1029E8003B60374B4FF44D7202FB0033DB69DB6809
:1029F800728853F822201378517803EB01239178D9
:102A080003EB0143D27803EB0263C8F800300023DC
:102A180052E02B4B4FF44D7202FB00331B6A002B24
:102A280046D049789A79914201D000241DE0B288B5
:102A3800072A0CD11B683B60214B4FF44D7202FBF7
:102A480000331B6A9B88C8F80030002334E01D4817
:102A580001F072FB1C4801F0D5FB1C4801F06CFB2F
:102A68004FF0FF3328E00134E4B2154B4FF44D72B8
:102A780002FB053393F86C32A3421BD94FF0CD0CFF
:102A88000CFB054C0CF18A0C0D4B03EB8C035B68BB
:102A9800002BE8D0D3F80890B9F1000FE3D04346F3
:102AA8003A4631462846C84703460028DBD103E0AA
:102AB8000024DAE74FF0FF331846BDE8F88300BF7B
:102AC800F4060020A4A1000858A200089CA1000850
:102AD80008B594461A494FF44D7303FB00118A68F0
:102AE80062448A60CB68A3EB0C03CB60D3B9144B68
:102AF8004FF44D7202FB00331B7DBBB9104B4FF4F2
:102B08004D7202FB0033DB887BB1134600FB03F3F5
:102B18000B4AD356002B08DA00231A46194600F050
:102B280053FF02E0802100F0FDFE08BD044B02FBCC
:102B3800003300221A751346802100F0F3FEF4E7F3
:102B4800F406002008B5897800F012FEB0FA80F08B
:102B5800400908BD2DE9F04F83B081468846934669
:102B6800224B4FF44D7202FB00339C6900252E4620
:102B78000095FF27BA4601950BE094F803A0A778C3
:102B8800B84515D023781C4423781D44AE4200D89C
:102B980016BB237803B36378042BEED0052B0BD038
:102BA800022BEFD1A678E37846EA03260025E9E769
:102BB800D345E7D10194E5E74745E3D1DA4505D0A8
:102BC80021464846FFF7BEFF0090DBE7214648460E
:102BD800FFF73CFD0090D5E7019A08214846FFF72A
:102BE800FDFC009803B0BDE8F08F00BFF40600209C
:102BF8002DE9F84F05460C4690461F46B1F802A04D
:102C08008E88FFF785FC8146002852D04FEA1A2BA0
:102C1800F6B263780B2B4AD8DFE803F00649494936
:102C28004949104949493940D8F800200023137010
:102C3800D8F80020537002233B603AE0BBF1220F22
:102C480020D04FF0000934E00132D2B21A4B4FF4D1
:102C58004D7101FB053393F86C32934214D9CD239F
:102C680003FB05238A33144901EB83035B68002BBC
:102C7800EAD0197EB142E7D11A69C8F800205B6929
:102C88003B6016E00022E1E74FF0000911E0D8F8B8
:102C9800003000221A7001233B600AE05FFA8AF2D2
:102CA80031462846FFF756FF00233B6001E04FF00E
:102CB80000094846BDE8F88FF40600202DE9F843DE
:102CC80080460C4616461D468988CFB2FFF720FC81
:102CD800814658B16378012B0BD0032B1ED09BBBC8
:102CE800326813703268537002232B604846BDE87F
:102CF800F88363881BB100232B609946F6E71448D4
:102D080001F01AFA3946134801F016FA124801F090
:102D180013FA3946404600F0A7FDE7E7638823B178
:102D28004FF0000900232B60E0E7094801F004FA9E
:102D380039460A4801F000FA074801F0FDF939461A
:102D4800404600F065FDEDE74FF00009CEE700BF13
:102D5800A4A1000870A200089CA1000888A200088D
:102D680010B50C7804F00304012C07D0022C0AD00B
:102D780074B9FFF767FD70B100200BE0FFF738FF6B
:102D880060B1002006E0FFF799FF50B1002001E094
:102D98004FF0FF3010BD4FF0FF30FBE74FF0FF3032
:102DA800F8E74FF0FF30F5E738B50D460C7804F03A
:102DB8006004202C1ED0402C30D0002C42D1FFF7CC
:102DC800CFFF002801DB01203DE06B78062B03D103
:102DD8006B88B3F5C06F37D01C4801F0ADF91C48BB
:102DE80001F010FA1B4801F0A7F92846FFF79CFDEF
:102DF800002028E0FFF79AFB002801DB012022E0F1
:102E0800124801F099F9144801F0FCF9114801F051
:102E180093F92846FFF788FD002014E0FFF7A0FD8E
:102E2800002801DB01200EE0084801F085F90B4875
:102E380001F0E8F9074801F07FF92846FFF774FD2B
:102E4800002000E0002038BD0020FCE7A4A1000815
:102E58009CA200089CA10008B4A20008CCA200080B
:102E68004FF44D73194903FB00116AB310B50446BA
:102E780094468A6862448A60CB68A3EB0C03CB60F3
:102E8800EBB94FF44D7004FB00F000F128030F4A32
:102E980013448B6000F110030830134402442046A9
:102EA800FFF782FF30B100231A468021204600F048
:102EB80039FD08E08021204600F0AAFC03E000214B
:102EC800204600F081FD10BD704700BFF4060020C9
:102ED80070B582B00446002100F0C0FA164E4FF4D7
:102EE8004D7303FB0466002586F8285207238DF8E6
:102EF800003005238DF801304023ADF804308DF8FB
:102F0800035080238DF802308DF80650694620461C
:102F180000F0B4FA8DF802506946204600F0AEFA87
:102F28002A4601212046FFF759FBD6F83033012104
:102F38002046984702B070BDF406002030B583B033
:102F480004460A464FF44D7300FB03F3434819182F
:102F580015685268C5504A60CB88B3F5007F06D91A
:102F68004FF44D7204FB02F28256002A4FDA4FF4F6
:102F78004D7C0CFB04FC0CF12802384802446044E8
:102F88008260C360036100250575019223B1334D4A
:102F980015F90C00002848DA4FF44D7304FB03F3CD
:102FA80010332E4A134401AA2046FFF7FDFE0028DD
:102FB80041D02A4B4FF44D7202FB0433DA88196969
:102FC8008A4228BF0A46DA60B2F5007F38D8234B18
:102FD8004FF44D7101FB043398680199884201D080
:102FE800FDF7FEF81D4D4FF44D7303FB0455EB68D8
:102FF800AA688021204600F095FCEA882B699A424D
:1030080017D913F03F0F14D101222A7511E0144883
:1030180001F092F8134801F0F5F8134801F08CF824
:103028008021204600F0F4FB03E00021204600F058
:10303800CBFC03B030BD8021204600F0E9FBF8E767
:10304800074801F079F8074801F0DCF8064801F074
:1030580073F88021204600F0DBFBEAE7F406002045
:10306800A4A10008E4A200089CA1000810B501F082
:103078007F0303EB430C4FF44D7300FB03F303EBA7
:103088008C03034C2344D3F8783203B1984710BD1E
:10309800F406002010B501F07F0303EB430C4FF456
:1030A8004D7300FB03F303EB8C03034C2344D3F869
:1030B800D83203B1984710BDF406002038B50D4644
:1030C8004FF44D720B4C02FB00440021204601F0E6
:1030D800E9F8A561002384F86C32802284F8702214
:1030E800054AC4F8782284F8D032044BC4F8D832A0
:1030F80038BD00BFF4060020D92A0008692E000850
:1031080010B40A4C4FF44D7202FB004292F86C3234
:103118000B764FF0CD0C0CFB00308A3004EB8004AA
:103128006160013382F86C3210BC7047F4060020ED
:1031380010B591F800C091F90030002B16DB0CF0A7
:103148007F03164C03EB43024FF44D7E0EFB00F059
:1031580000EB8202224482F8D0C24A6803EB4303A0
:1031680000EB83000444C4F8D82210BD0CF07F03A0
:103178000A4C03EB43024FF44D7E0EFB00F000EBCC
:103188008202224482F870C24A6803EB430300EBD0
:1031980083000444C4F87822E7E700BFF40600205F
:1031A80011F0800F0ED101F07F0101EB41014FF4C6
:1031B8004D7303FB00F000EB81000A4B0344B3F8A6
:1031C800D202704701F07F0101EB41014FF44D73CA
:1031D80003FB00F000EB8100024B0344B3F87202DA
:1031E800704700BFF406002070B548B1124800F0DF
:1031F800A3FF124801F006F8114800F09DFFFEE712
:103208000446104B03EBC00359600F4D4FF44D7348
:1032180003FB0055C5F8302300F000F906460022EC
:103228000B212046FFF7DAF9D5F830330B21204679
:103238009847304670BD00BFA4A1000800A300084D
:103248009CA10008DC1A0020F406002038B50446CA
:103258001146084800F070FF074D2946074800F05E
:103268006BFF4FF400632A460221204600F0ACFBB6
:1032780038BD00BF10A300082812002024A30008AE
:10328800072900D0704708B5044B00221A704FF484
:103298000063034A022100F097FB08BD201B0020B1
:1032A8002812002070B505460E46144611460B48F4
:1032B80000F042FF31462846FFF772FFB4FBF0F3F7
:1032C80000FB134303B91CB9054B00221A7070BDEB
:1032D8001A468121284600F025FBF8E734A30008A8
:1032E800201B002070B584B004460D461A4A01AB75
:1032F80007CA03C31A80194E334604AA12E9070005
:1033080003C31A8040F2F672612106F10A0000F048
:10331800C9FF13492046FFF7D1FE12492046FFF79F
:103328007FF801462046FFF7EBFE0F492046FFF7DE
:1033380077F801462046FFF7E3FE0C492046FFF7E1
:10334800F7FE0B492046FFF7F3FE0A4A29462046B6
:10335800FFF74AFF04B070BD48A30008280A002000
:103368002CA50008041B0020E81A002014000020E7
:103378000C000020893200081AB1044B01221A708F
:103388007047024B00221A70704700BFE41A0020F1
:1033980008B5094B1B7803B908BD084B01221A7000
:1033A8004FF40063064A812100F0BCFA034B1B78F6
:1033B800002BFBD1F0E700BFE41A0020201B0020FF
:1033C800280A002001335B0800EB420000F580600A
:1033D80008E00A7891F801C042EA0C2220F8042B90
:1033E8000231013B002BF4D1704710B45C0800EBAC
:1033F800420000F5806007E030F8042B0A70C2F341
:1034080007224A700231013C002CF5D113F0010F5C
:1034180001D003880B7010BC7047000008B5FDF799
:1034280047FC0D4B5B680122A3F840200020A3F85D
:103438004000A3F84400A3F850004FF43F42A3F81B
:103448004020B3F858206FEA42426FEA524292B2E3
:10345800A3F8582008BD00BFDC1A00200A4621B98D
:10346800044B5B688021A3F84C10034B1A720020B0
:10347800704700BFDC1A0020241B002038B50C461A
:103488008A7812F0780F0BD1002002F07F03CA78F7
:1034980002F00302032A1AD8DFE802F017140F110A
:1034A800AD4800F049FEA178AC4800F045FEAC48B4
:1034B80000F042FE4FF0FF304CE1002007E04FF4EF
:1034C800C06004E04FF4806001E04FF40070A5494B
:1034D8004D6835F8232092B222F4EC4222F07002B3
:1034E800024348F28000024325F82320496831F856
:1034F800232092B222F4E04222F070021A430243DF
:1035080021F8232094F90220002AC0F29D80A18886
:10351800C1F30A0103EB4300934A02EBC002A2F88D
:10352800D010E07800F0030082F8D200012082F881
:10353800D400B2F8D62091422AD98B4AD2680A44DC
:10354800B2F5007F58D8A088C0F30A00864A03EB7A
:10355800430102EBC101A1F8D600D06803EB430197
:1035680002EBC101A1F8D8007E494968B1F85000C2
:1035780080B2014401EB0311D06820F0010080B251
:10358800A1F80804D168A088C0F30A000144D160FA
:10359800744A5268B2F8501089B20A4402EB031216
:1035A800A188C1F30A00A0BBB2F80C1489B221F4B7
:1035B800F84189B2A2F80C14B2F80C146FEA414130
:1035C8006FEA514189B2A2F80C14664A516831F881
:1035D800232012F4804F00F0BC8031F8232092B2EF
:1035E80022F4E04222F0700242F4404242F08002AB
:1035F80021F823200020ADE0574800F09DFDA17878
:103608005A4800F099FD564800F096FD4FF0FF30FB
:10361800A0E03E280AD8C1F3490011F0010F00D0FC
:103628000130800280B2A2F80C04CEE7C1F3451045
:1036380011F01F0F00D101386FEAC0606FEA5040E7
:1036480080B2A2F80C04C0E7A188C1F30A0103EB19
:103658004300454A02EBC0021182E07800F0030003
:10366800907401201075D28A914228D93E4AD268B6
:103678000A44B2F5007F4ED8A088C0F30A003A4A3F
:1036880003EB430102EBC101C882D068591C01EB6E
:10369800410122F8310033494968B1F8500080B23D
:1036A800014401EB0311D06820F0010080B2A1F8B9
:1036B8000004D168A088C0F30A000144D160294AF7
:1036C800516831F8232012F0400F0CD031F8232034
:1036D80092B222F4E04222F0700242F4004242F038
:1036E800C00221F82320E27802F00302012A1FD049
:1036F8001C4A516831F8232092B222F4E04222F0A9
:10370800400282F0200242F4004242F0800221F896
:10371800232000201EE0104800F00EFDA178134879
:1037280000F00AFD0E4800F007FD4FF0FF3011E0F1
:103738000C4A516831F8232092B222F4E04222F078
:10374800400242F4004242F0800221F82320002087
:1037580000E0002038BD00BFA4A1000854A3000861
:103768009CA10008DC1A0020241B00206CA3000880
:1037780001F07F0211F0800F24D1244B596831F8F1
:10378800223013F4804F0CD031F822309BB223F44E
:10379800E04323F0700343F4404343F0800321F8EF
:1037A80022301A4B596831F822309BB223F48043F7
:1037B80023F0700343F4004343F0800321F82230E0
:1037C80000207047114B596831F8223013F0400F30
:1037D8000CD031F822309BB223F4E04323F070037D
:1037E80043F4004343F0C00321F82230074B5968E3
:1037F80031F822309BB223F4E04323F0400343F432
:10380800004343F0800321F82230D9E7DC1A002076
:1038180001F07F0211F0800F12D1124B596831F874
:1038280022309BB223F4804323F0700383F4805347
:1038380043F4004343F0800321F82230002070470E
:10384800084B596831F822309BB223F4E04323F047
:10385800400383F0100343F4004343F0800321F84E
:103868002230EBE7DC1A002001F07F0211F0800F14
:1038780026D12A4B596831F8223013F4804F0CD0E6
:1038880031F822309BB223F4E04323F0700343F471
:10389800404343F0800321F82230204B596831F827
:1038A80022309BB223F4804323F0700383F4405307
:1038B80043F4004343F0800321F82230002070478E
:1038C800164B596831F8223013F0400F0CD031F8FC
:1038D80022309BB223F4E04323F0700343F4004307
:1038E80043F0C00321F8223002EB42010C4B03EBFA
:1038F800C1039B7C012BE1D0084B596831F8223079
:103908009BB223F4E04323F0400383F0200343F405
:10391800004343F0800321F82230CFE7DC1A00206F
:10392800241B0020F8B501F07F041146002A3FD07F
:1039380004EB4400224A02EBC002127D002A3CD06C
:10394800DFF87CC0621C02EB42000CEBC000416057
:1039580004EB44000CEBC000036200254562068AB4
:103968009E4228BF1E46174FB6B202EB42023346AC
:103978003CF832207868FFF725FD7A68B2F85030B5
:103988009BB21A4402EB0412A2F804647A6832F873
:1039980024309BB223F4E04323F0400383F0300348
:1039A80043F4004343F0800322F824302846F8BD4E
:1039B800002BBDD04FF0FF30F9E76FF00100F6E7BC
:1039C800241B0020DC1A002010B401F07F011446EB
:1039D8002AB301EB4100164A02EBC00292F8D42048
:1039E80012B3134A02EBC000C0F8DC40C0F8E03064
:1039F80002460020C2F8E4000E4B5A6832F8213023
:103A08009BB223F4804323F0700383F4405343F4C0
:103A1800004343F0800322F8213010BC7047002B8C
:103A2800D7D04FF0FF30F8E76FF00100F5E700BF9F
:103A3800241B0020DC1A00202DE9F04F85B0C64B6E
:103A48005B68B3F844309DB213F4004F40F029810D
:103A580015F4806F40F0028215F4804F09D0BE4BF8
:103A68005A68B2F844309BB223F480439BB2A2F860
:103A7800443015F4005F09D0B74B5A68B2F84430A7
:103A88009BB223F400539BB2A2F8443015F4805F34
:103A980019D0B14B5A68B2F840309BB223F00403F6
:103AA8009BB2A2F84030B2F840309BB223F0080332
:103AB8009BB2A2F84030B2F844309BB223F4805352
:103AC8009BB2A2F8443015F4006F40F0EC8115F475
:103AD800007F09D0A04B5A68B2F844309BB223F457
:103AE80000739BB2A2F8443015F4807F09D09A4B3A
:103AF8005A68B2F844309BB223F480739BB2A2F8A0
:103B0800443005B0BDE8F08F33F8242092B222F497
:103B1800E14222F070026FEA42426FEA524292B2E8
:103B280023F824208C4B5A68B2F850309BB203EB30
:103B3800C403023302EB4302B2F80064C6F3090679
:103B4800864F631C03EB4301CA003A44516803EBF8
:103B58004303DA003A443144516004EB4402D30091
:103B68003B441A6A921B1A625A6A324404EB4401B3
:103B7800CB003B445A6244F080010020FFF776FAFC
:103B8800FB88BBB1754B93F90030002B18DA734BE7
:103B98001B7A002B00F08580002E40F082806F4A4F
:103BA800137A6D49496843F08003A1F84C3000232B
:103BB800137276E01A4619461846FFF705FFE6E73E
:103BC80000231A4619461846FFF7FEFEDFE733F8CA
:103BD800242022F070021205120D42F0800223F810
:103BE80024205D4B5868B0F850309BB203EBC403F7
:103BF800063300EB4303594E04EB4404E20032441D
:103C080093F80034B2F8D8203146FFF7EEFB31467E
:103C18000020FFF793F944E033F8242097B212F418
:103C2800004F40F09D8017F0800F3AD04A4A516803
:103C380031F824309BB223F4E14323F070036FEA98
:103C480043436FEA53439BB221F824305068B0F8DD
:103C580050309BB203EBC403023300EB4303B3F8C9
:103C68000024C2F309023D4B04F1010C0CEB4C0695
:103C7800F100194449681144F6001E44716004EBD0
:103C88004407FE0033441E6AB61A1E625F6A3A444D
:103C98005A62002E40F0B58044F080010020FFF702
:103CA800E5F92D4B5B68B3F8442012F4004F3FF45C
:103CB800CFAEB3F84440A5B214F00F04ACD115F060
:103CC800100F3FF421AF33F8242091B212F4006FA3
:103CD8007FF47DAF11F4004FE3D033F8242022F0B5
:103CE80070021205120D42F0800223F824201A4BAC
:103CF8005868B0F850309BB203EBC403063300EBAE
:103D0800430393F80074DFF8548004EB4403DE00A7
:103D180046443B46B6F8D820D6F8DC10FFF765FBDA
:103D2800D6F8DC303B44C6F8DC30D6F8E030DB1B94
:103D3800C6F8E030D6F8E4203A44C6F8E420214634
:103D48000020FFF7A7F9002FABD100231A46194628
:103D58001846FFF739FEA4E7DC1A0020241B0020D0
:103D680033F8242022F070021205120D42F080026E
:103D780023F82420764B5868B0F850309BB203EBF8
:103D8800C403063300EB430393F800841FFA88FB4F
:103D9800DFF8C0A104EB4403DE0056445B46B6F8E6
:103DA800D820D6F8DC10FFF720FBD6F8DC304344E7
:103DB800C6F8DC30D6F8E030A3EB0803C6F8E030EC
:103DC800D6F8E4204244C6F8E420B6F8D0105945A5
:103DD80000D823B921460020FFF75CF923E75C4BA4
:103DE8005A6832F824309BB223F4804323F07003DE
:103DF80083F4405343F4004343F0800322F8243013
:103E080011E7544A04EB4407FB0013441B8A9E4203
:103E180028BF1E46B6B2631C03EB4303DF003346DC
:103E2800D25BFFF7CFFA4A494B68B3F8502092B2F9
:103E3800134403EB0413A3F804644A6832F82430EB
:103E48009BB223F4E04323F0400383F0300343F4B0
:103E5800004343F0800322F8243022E73D4C4FF41E
:103E6800C8720021204600F01DFA4023E3600020BC
:103E7800FFF72EF8364A51680B889BB223F480432B
:103E880023F0700383F4405343F4004343F080036A
:103E98000B805268B2F844309BB223F480639BB223
:103EA800A2F84430D8E50023072B0BD8284A5268DB
:103EB80032F8231004AA02EB430222F8101C013343
:103EC800DBB2F1E7224B5A68B2F840309BB243F0BC
:103ED8000103A2F84030B2F840309BB223F001034E
:103EE8009BB2A2F84030B2F8443013F4806FFAD095
:103EF800B2F844309BB223F480639BB2A2F84430FA
:103F08000023072B0BD8124A526804A901EB43017E
:103F180031F8101C22F823100133DBB2F1E70C4B07
:103F28005A68B2F840309BB243F00803A2F8403018
:103F3800B2F844309BB223F400639BB2A2F8443039
:103F4800B2F840309BB243F00403A2F84030BEE51B
:103F5800DC1A0020241B0020024A0349034800F011
:103F6800C9B800BF1C000020B1690008300000205B
:103F78000C4B416810B59942044601D002F014FD7B
:103F8800A168094B994202D0204602F00DFDE16874
:103F9800064B994204D02046BDE8104002F004BD0B
:103FA80010BD00BFB41C00201C1D0020841D002073
:103FB8002DE9F84300250423304C314A3149DFF814
:103FC800C890DFF8C880324F324E116004F15C00AF
:103FD80029460822C4E90335C4E90055C4E9055552
:103FE800A560656600F05EF904F15800C4E9074968
:103FF800C4E90987E66200F027FA274B2946082218
:1040080004F1C4006367C4E91A55C4E91E5525675D
:10401800C4F8CC50C4F8805000F044F904F16803A7
:1040280004F1C000C4F88430C4E92298C4E92476B5
:1040380000F00AFA194B294604F596700822C4F8CC
:10404800DC30C4E93455C4E93855C4F8D850C4F84C
:104058003451C4F8E85000F025F904F1D003C4E95C
:104068003D87C4F8F09004F59470C4F8FC60C4F877
:10407800EC30BDE8F84300F0E7B900BFB41C0020FD
:10408800EC1D0020613F00081D4200084142000865
:1040980081420008A5420008090001001200020040
:1040A80010B504460A4800F0D3F9636B23B9094BED
:1040B800094A1B68626323B1BDE81040044800F058
:1040C800C9B9FFF775FFBDE81040014800F0C2B953
:1040D800FC1D0020EC1D0020793F0008014800F07D
:1040E800B7B900BFFC1D0020014800F0B3B900BFFC
:1040F800FC1D00202DE9F8434FF0000980460F46CB
:104108001646D6E90154013D10D4A389012B08D9DC
:10411800B4F90E30013304D021464046B84749EA85
:104128000009013D6B1C04F16804EED13668002ECD
:10413800E7D14846BDE8F8830FB400B5074A83B015
:1041480004AB106853F8042B8168019300F0DAFD82
:1041580003B05DF804EB04B0704700BF28000020EE
:1041680030B5054689B008460C4600F075F90123BC
:104178000222234907936B6B0691029204A9421C01
:1041880004940191AC68059003926BB3636EB4F923
:104198000C20D80701D491051FD5900405D442F40A
:1041A800005223F40053A2816366990420D4214667
:1041B800284601AA02F016FDE8B90A25636EDA0757
:1041C80002D4A3899B0502D5284609B030BDA06D4D
:1041D80000F040F9284609B030BDA06D00F038F96C
:1041E800B4F90C20636ED8E72846FFF759FFCDE7EE
:1041F8004FF0FF35E3E74FF0FF35636EDFE700BFB1
:1042080098A10008024B01461868FFF7A9BF00BF34
:104218002800002010B50C46B1F90E1000F0BAF8CD
:10422800002803DB236D0344236510BDA38923F411
:104238008053A38110BD00BF2DE9F0410C46B1F9B0
:104248000C101F46CB05054616460BD421F48051A9
:10425800A1813B4632462846B4F90E10BDE8F0412C
:1042680000F0AEB8B4F90E100223002200F07CF87A
:10427800B4F90C10EAE700BF10B50C46B1F90E10FE
:1042880000F072F8B4F90C30421C0EBF23F48053CE
:1042980043F480532065A38110BD00BFB1F90E100F
:1042A80000F050B870B5860747D0541E002A3ED09B
:1042B8000346CAB201E0013C39D303F8012B9D073C
:1042C800F9D1032C2CD9CDB205EB05250F2C1A46B4
:1042D80005EB054534D9A4F1100C2CF00F0603F1B9
:1042E800100EB6444FEA1C1CC2E90055C2E902553B
:1042F80010327245F8D10CF1010214F00C0F03EBE7
:10430800021204F00F0C13D0ACF1040323F00303E2
:104318000433134442F8045B9342FBD10CF00304CA
:104328002CB1C9B21C4403F8011BA342FBD170BDD8
:1043380064461346002CF4D1F9E703461446C0E757
:10434800A446E1E7002238B5064D044608462A602F
:10435800FCF794FD431C00D038BD2B68002BFBD024
:10436800236038BDF01D002038B50C4611460022E8
:104378008446074D20462A601A466446FCF788FDA5
:10438800431C00D038BD2B68002BFBD0236038BD00
:10439800F01D002038B50C46114600228446074D12
:1043A80020462A601A466446FCF74AFD431C00D0A2
:1043B80038BD2B68002BFBD0236038BDF01D0020D2
:1043C80038B50C46114600228446074D20462A601F
:1043D8001A466446FCF744FD431C00D038BD2B68E0
:1043E800002BFBD0236038BDF01D0020014B18685E
:1043F800704700BF2800002070B50F4B0F4DAB422F
:10440800A3EB050607D00024B61055F8043B013489
:104418009847A642F9D805F07DFE094D094B5E1B69
:10442800AB424FEAA60606D0002455F8043B0134F7
:104438009847A642F9D870BD2CA800082CA80008F7
:104448002CA8000834A80008704700BF704700BFB8
:10445800704700BF704700BF20F0030110F0030051
:10446800C0F1000051F8043B00F1040C4FEACC0CF9
:104478006FF000021CBF22FA0CF213434FF0010C3C
:104488004CEA0C2C4CEA0C4CA3EB0C0222EA03027B
:1044980012EACC1204BF51F8043B0430F4D0C2F144
:1044A800000102EA0102B2FA82F2C2F11F0200EB35
:1044B800D2007047024B13B1024800F005B87047AC
:1044C800000000003D710008002301461A46184606
:1044D80002F0D4BE2DE9F84306460820894602F0CA
:1044E8003DFE0546DFF89880304600F0FFFBD8F81F
:1044F80008305F6827F00307A7F11104A4EB09044B
:104508002C44B4FBF5F4013C05FB04F4A54208DC9B
:104518000021304602F0FCFDD8F808303B449842B0
:1045280005D0304600F0E8FB0020BDE8F8833046AF
:10453800614202F0EDFD01300FD0124AD8F8083080
:104548003F1B47F001075F60136830461B1B136071
:1045580000F0D2FB0120BDE8F8830021304602F0CC
:10456800D7FDD8F80820831A0F2BDADD43F00103B2
:104578005360054B03491B68C01A0860D1E700BFA8
:1045880080010020041E00207401002000297CD036
:10459800F8B50C46064600F0A9FB54F8043C764FE3
:1045A800A4F1080523F001016818D7F808C042688B
:1045B800844522F0030200F08380DB07426000EBB1
:1045C800020C33D454F8084CDCF804302D1B214479
:1045D800AC6807F1080C644503F0010364D0D5F812
:1045E8000CE0C4F80CE0CEF80840002B00F0818005
:1045F80041F001036B600160B1F5007F22D2012216
:10460800CB0849098A40796801330A437A6057F828
:10461800331007EBC302083AC5E9021247F83350D2
:10462800CD603046BDE8F84000F066BBDCF80430E9
:10463800DB072BD541F00103B1F5007F44F8043CBA
:104648000160DCD3B1F5206F4FEA512353D28B09B7
:1046580003F1390003F13802C300F818FB58083891
:10466800984203D161E09B68984204D05A6822F0CE
:1046780003028A42F7D8D868C5E902308560304617
:10468800DD60BDE8F84000F037BB7047114407F122
:10469800080C836863453FD0C268DA60936041F0D4
:1046A80001036B606950A7E7002B5FD10A44D0E98A
:1046B8000213CB60996042F001036B60AA50B0E727
:1046C8000A44D90707D454F8083CED1A1A44D5E926
:1046D8000213CB60996042F001036B60274BBD6009
:1046E8001B6893429DD8264B30461968FFF7F2FEA7
:1046F80097E71144CDE7142B08D9542B1DD80B0B81
:1047080003F16F0003F16E02C300A6E703F15C003A
:1047180003F15B02C300A0E741F00103C7E90455B8
:10472800C5E902CC6B6069507BE70121921001FA60
:1047380002F279680A437A609EE7B3F5AA7F06D841
:10474800CB0B03F1780003F17702C30085E740F251
:104758005452934206D88B0C03F17D0003F17C027E
:10476800C3007AE74FF47E737E2276E741F00103B7
:104778006B60016055E700BF8001002078010020D0
:10478800341E00202DE9F04F01F10B05162D0646C9
:1047980083B024D8102900F2AD8000F0A7FA1025C4
:1047A80018234FF0020CB84F3B445C68A3F1080291
:1047B800944200F01D8130466368E268A16823F0E6
:1047C8000303CA60234491605A68083442F0010226
:1047D8005A6000F091FA204603B0BDE8F08F35F03A
:1047E800070500F18780A94200F2848000F07EFA74
:1047F800B5F5FC7FC0F06F816B0A7FD0042B00F207
:104808001E81AB0903F1390C03F1380E4FEACC00D5
:104818009D4F384444680838A04207D10DE0002A6B
:10482800E16880F2DF80884207D00C46636823F095
:1048380003035A1B0F2AF2DDF446DFF850823C6965
:10484800444500F0BC80636823F00309A9EB050325
:104858000F2B00F34581002BC7E9048880F22F81D4
:10486800B9F5007FD7F804E080F0C98001234FEA4A
:10487800D9014FEA5919194403FA09F357F83120B5
:104888004EEA030E07EBC103083BA260E360C7F8DA
:1048980004E047F83140D46001204FEAAC03984067
:1048A800704532D810EA0E0F07D12CF0030C4000E7
:1048B80010EA0E0F0CF1040CF9D007EBCC0AD6461F
:1048C800E146DEF80C300BE059681C4621F0030184
:1048D8004A1B0F2ADB6800F3BF80002A80F2E280BF
:1048E8009E45F1D109F1010919F0030F0EF1080EE7
:1048F800E7D11FE10C23336000246CE74FF400700C
:104908004FF0400C4FF03F0E82E7BC68636823F01D
:104918000309A94503D3A9EB05030F2B52DC5C4B14
:1049280008201B6803F1100804EB0903009302F048
:1049380015FC584A83461368A844013305D008F18A
:10494800FF388044434203EA08084146304602F0F3
:10495800DFFBB0F1FF3F82464E4A00F0DC8004EBFB
:104968000903834200F2D5804B4B0BF1FF311868E5
:1049780040448446186040F0FB801AEA010F40F07A
:10498800F780D7F808A0C84448F00102CAF8042004
:104998005446424B1968814238BF1860404B196829
:1049A800814238BF186022F00308A845A8EB050328
:1049B80001D30F2B06DC304600F09EF99CE7D7F8B0
:1049C80004E069E7621943F0010345F001056560F9
:1049D8003046BA600834536000F08EF9204603B0C0
:1049E800BDE8F08FA2683046D16023448A60EBE6C8
:1049F800DC68A3427FF4DFAE0CF1020C1DE7B9F5C9
:104A0800206F4FEA59227DD3142A00F2118102F156
:104A18005C03DB005B32F918FB580839994203D173
:104A2800ECE09B68994204D05A6822F003024A4598
:104A3800F7D8D968C4E902318C60DC602CE7142B04
:104A48006CD9542B00F2FD802B0B03F16F0C03F192
:104A58006E0E4FEACC00DBE6D4F808C03046661983
:104A680045F001056560CCF80C30C3F808C042F089
:104A78000103C7E90466C6E902887360625000F062
:104A88003BF90834A7E600BF800100208801002018
:104A9800341E002074010020041E0020301E002057
:104AA8002C1E002021444A68304642F001024A6028
:104AB80054F8082FD3609A6000F01EF98BE6A144E1
:104AC800D9F80430304643F00103C9F8043000F047
:104AD80013F908347FE64FEAD50C05F1080362E6BE
:104AE800621943F0010145F0010565603046C7E9E8
:104AF8000422C2E90288516044F8093000F0FCF849
:104B0800083468E64FEA991202F13903DB003832BB
:104B180081E7BC4224D0BC68626844E703F15C0CBE
:104B280003F15B0E4FEACC0072E65AF80839534598
:104B380040F0D8801CF0030F0CF1FF3CF5D17B68E6
:104B480023EA00037B60400098423FF6DEAE18B9C6
:104B5800DBE6400009F104091842FAD0CC46ACE67D
:104B6800614B0BF1FF31186808EB000CC3F800C06B
:104B78001068013070D004EB0902AAEB020262440B
:104B88001A601AF00702CDE9002340D0C2F10802EA
:104B98009244D04408EA01005A44121A02EA010B6E
:104BA8005946304602F0B4FA421C019B71D0A0EB82
:104BB8000A0000EB0B08186848F001025844BC4290
:104BC800C7F808A01860CAF804203FF4E1AEB9F1AC
:104BD8000F0F44D94FF0050C6168A9F10C0222F0BF
:104BE800070201F00101114361600F2A04EB020181
:104BF800C1E901CC55D8DAF80420C9E601209210A1
:104C080000FA02F24EEA020EC7F804E012E70AEBD5
:104C180008020A40ABEB020202EA010B5946304691
:104C280002F076FA431C019BC1D1DDF800B0C2E75F
:104C3800542A18D84FEA193202F16F03DB006E329A
:104C4800E9E6B3F5AA7F18D8EB0B03F1780C03F16A
:104C5800770E4FEACC00DBE5C2F800A091E701230C
:104C6800CAF80430A7E6B2F5AA7F25D84FEAD932A8
:104C780002F17803DB007732CDE640F254529342DA
:104C880025D8AB0C03F17D0C03F17C0E4FEACC0068
:104C9800BEE5009A4FF0000B083A9044A8EB0A08CA
:104CA80089E7304604F108010093FFF76FFC009B89
:104CB800D7F808A018689EE740F254539A420DD8D6
:104CC8004FEA994202F17D03DB007C32A3E64FF400
:104CD8007E704FF07F0C4FF07E0E99E54FF47E7397
:104CE8007E2298E67B682EE7041E00200148FFF725
:104CF800AFBB00BFF41D00200148FFF7ABBB00BFEE
:104D0800F41D00202DE9F04FDDB0914609911C46B5
:104D180083460F9302F0F8F9036818461993FFF7D2
:104D28009BFB0822189000212CA8FFF7BBFABBF1C7
:104D3800000F04D0DBF83430002B01F03E80099AD4
:104D4800536EB2F90C20D90702D4970540F16E864C
:104D5800960406D4099942F4005223F400538A8138
:104D68004B669D0401F1F883099AB2F90C301907D2
:104D780040F1C7801269002A00F0C38003F01A02CC
:104D88000A2A00F0CD80002300249E46CDE9313365
:104D9800002333AACDE91634DA4614464D46CDE948
:104DA8001BEE3092CDF868E0CDF880E0CDF874E0E5
:104DB800CDF82CE0CDF848E02F468B4BD3F8E460D3
:104DC80002F09CF90DF1B00C03463A46504628A96A
:104DD800CDF800C0B047002800F0C180C0F2B7800D
:104DE800289B252B01D00744E7E7B7EB05080646C3
:104DF80040F0B98000224FF0FF3393460A937B7846
:104E08007E1C8DF897200C9299460136A9F1200353
:104E18005A2B00F2EB80DFE813F02203E900E900E7
:104E28001E03E900E900E9000003E900E9006A005F
:104E38004D03E90061023003E9002C035B005B00CD
:104E48005B005B005B005B005B005B005B00E900F4
:104E5800E900E900E900E900E900E9006101E90089
:104E6800F101B602610161016101E900E900E900AF
:104E7800E900B202E900E9006502E900E900E90099
:104E88000A02E9009602E900E900BE06E900E90025
:104E9800E900E900E900E900E900E9006101E90049
:104EA800F1013B02610161016101A8023B02ED01D0
:104EB800E900CD02E900F102DF06DF02ED01E900B9
:104EC8000A027200E206E900E900E606E90072005B
:104ED8000022A9F1300316F8019B02EB820203EBD2
:104EE8004202A9F13003092BF5D90C928EE70F9BEA
:104EF80053F8042B002A0C920F93C0F2EC813378FC
:104F080082E7099D5846294601F0E2FF002841F052
:104F18008684B5F90C3003F01A020A2A7FF433AFFD
:104F28000999B1F90E20002AFFF62DAF4A6ED50770
:104F380002D4980541F1E58023464A465846099926
:104F480001F0E2FC0B900B985DB0BDE8F08F0822F1
:104F580000212CA8FFF7A6F9012007442DE7B7EB9D
:104F68000508064610D0329BC4E9005843443293E2
:104F7800319B0133072B319310DC08340B9B4344DE
:104F88000B93002E7FF436AF329B002B41F0A280AA
:104F98000022099B3192B3F90C3019E05046099967
:104FA80030AA01F0F1FC80B933ACE7E75046099923
:104FB80030AA01F0E9FC002800F08580D3460E9B5A
:104FC8001BB158460E99FFF7E1FA099BB3F90C306B
:104FD800099A526ED10740F103815B0601F1C6823E
:104FE8000B985DB0BDE8F08F880500201096B9F1E8
:104FF800000FC9D0012300228DF80C91069343AD10
:105008008DF897200D93CDE913220E920A921192F2
:105018001BF0020302D00699023106911BF08408A6
:10502800329E05D10C9906980F1A002F00F39B8029
:105038006AB101226260319A013601320DF197019D
:10504800072A32963192216000F3C583083463B190
:1050580002236360319B0236013326AA072B32965E
:105068003193226000F3AC830834B8F1800F00F06C
:10507800BD820A9B0D9A9F1A002F00F3F8821BF439
:10508800807F40F01C820D9B25601E446360319B2D
:1050980032960133072B319300F3308308341BF029
:1050A800040F05D00C9B069A9D1A002D00F3A083CF
:1050B800DDE90B3206998A42ACBF9B185B180B934B
:1050C800002E7FF473AF002331930E9B1BB1504623
:1050D8000E99FFF75BFA33AC109D6DE60F9B1096A7
:1050E800073323F00703F3E802670F9327F0004321
:1050F8001F931E964FF0FF32DDE91E01B24BCDE93A
:105108001667FBF739FD002840F0EF84DDE91E0142
:105118004FF0FF32AC4BFBF711FD002840F0E5845F
:105128000022002330463946FBF7FEFC002841F0F8
:1051380019819DF8972000210320A44DA44B2BF042
:10514800800B0E910690B9F1470FD8BF1D46CDE9E7
:1051580013110A910D901191002A3FF459AF069B43
:105168000133069354E7102F319A41F3F181DFF8A8
:1051780064C221463046099C2E46CDF854C0654687
:10518800219304E0103F102F01F1080116DD1023D0
:1051980001321030072ACDE931200D604B60F1DD76
:1051A8002146504630AA01F0EFFB00287FF406AFF5
:1051B800DDE93120103F102F33A9E8DC35460C46D5
:1051C8000646219B013215993E44072ACDE931262E
:1051D8002160676000F3E1859DF89720083427E790
:1051E8009A053FF5FAAE099CA06DFFF733F9B4F9BB
:1051F8000C30F2E633784BF0200B05E60F9BB9F143
:10520800430F109603F1040600F024851BF0100FDD
:1052180040F020850F9B43AD1B688DF80C310123AE
:1052280006930D9300220F968DF89720EBE6002346
:105238000F9F109657F8045B8DF89730002D00F0FB
:10524800ED84B9F1530F00F0CE851BF010031193D4
:1052580040F0C9850A9B002BC0F229871A462846C8
:10526800119901F089FF0E90002801F082820E9BAF
:1052780011995B1B0D9323EAE3734FF07309CDE992
:1052880013119DF897200F970A9106930E9163E7E3
:105298001BF0200F10967CD00F9B073323F00703D9
:1052A8001846596850F8083B0A460F900029C0F282
:1052B80002840A990029C0F2748253EA02012BF091
:1052C800800740F06F820A9A002A40F07082BB463D
:1052D8000D925CAD61E10C9B5B420C9333784BF013
:1052E800040B91E510964BF0100B1BF0200200F018
:1052F8008E830F9B073323F0070319465A6851F82A
:10530800083B0F9100212BF4806700200A9D8DF83F
:105318009700002DC0F22A8153EA020027F0800B83
:1053280040F02381002D40F04D85002940F0C684CF
:1053380017F001030D9300F0AC8330230DF26F15C5
:105348008DF86F3129E110964BF0100717F0200205
:1053580000F04F830F9B0121073323F00703184602
:105368005A6850F8083B0F90CFE73378682B03BF93
:1053780073784BF4007B01364BF0400B44E53378EF
:105388004BF0080B40E54BF0100B1BF0200F10966C
:1053980082D10F9A1BF0100F52F8043B0F9240F085
:1053A80085831BF0400F00F07D8343F3C032114624
:1053B8001BB27BE733786C2B03BF73784BF0200B61
:1053C80001364BF0100B1FE5FFFFEF7F88A30008A5
:1053D80084A30008F0A5000847F630030F9AA948EF
:1053E800ADF8983052F8043B02210F924FF078093B
:1053F800002210964BF002071A9086E71BF0200F48
:10540800109600F061830F9B0B9A1B681A60D217E5
:105418005A600F9B04330F935EE6504601F074FE0A
:10542800436818461D93FFF717F820900746504623
:1054380001F06AFE83681B93002F3FF460AD1B9A4E
:105448003378002A3FF4E0AC1278002A3FF4DCAC51
:105458004BF4806BD8E433784BF0010BD4E49DF81F
:1054680097203378002A7FF4CFAC20228DF897203C
:10547800CAE433784BF0800BC6E4314611F8019B3F
:10548800B9F12A0F01F01682A9F13003092B98BF50
:10549800002201F2708011F8019B02EB820203EBFB
:1054A8004202A9F13003092BF5D942EAE2730E460C
:1054B8000A93ABE42B238DF897303378A4E4B9F141
:1054C800650F40F32681DDE9160100220023FBF772
:1054D80021FB002800F0C78101236360319B6A4AE1
:1054E80001330136072B32963193226000F36F8423
:1054F8000834279B129A934280F2A182189B199A2A
:105508001E44C4E90023319B32960133072B3193A3
:1055180000F379830834129B5D1E002D7FF7BFAD21
:10552800102D319B40F3DE80DFF860911027DDF805
:105538002480CDF8549004E00834103D102D40F339
:10554800D38001331036072BC4E90097CDE93136F3
:10555800F2DD4146504630AA01F016FA00287FF4E1
:105568002DADDDE9313633ACE7E75F46012900F0C0
:10557800198102295CAD1ED11A9803F00F01415C14
:105588001B0943EA0273120905F8011D53EA0201D7
:10559800F3D1BB465CAB5B1B0D930A9A0D990023B4
:1055A8008A42B8BF0A46CDE9133306920E939DF896
:1055B80097201193D0E503F00701DB0843EA427313
:1055C800D208303153EA0206284605F8011DF2D107
:1055D800FE07DED53029DCD03023023805F8013C3F
:1055E8005CAB1B1ABB4605460D93D6E70C9B069A87
:1055F8009F1A002F7FF73DAD102F319B41F37A8022
:105608002248224631464FF010080646099C15905C
:1056180004E0103F102F02F1080215DD01331031AC
:10562800072BC2E90068CDE93131F2DD2146504649
:1056380030AA01F0A9F900287FF4C0ACDDE93131C6
:10564800103F102F33AAE9DC14460E460133159A91
:105658003E44072BCDE931362260676000F3C782EC
:105668000A9B0D9A08349F1A002F7FF708AD074A46
:10567800102F319B159229DD32464FF010082E4627
:10568800099D0AE094A30008C4A30008E0A5000847
:10569800103F102F04F1080416DD0133B74910320A
:1056A800072BC4E90018CDE93132F1DD294650460F
:1056B80030AA01F069F900287FF480ACDDE93132C5
:1056C800103F102F33ACE8DC354616460133159AE7
:1056D8003E44072BCDE931362260676000F37D81B7
:1056E8000834CCE4A54A1592159A01332E44072BA9
:1056F80022606560CDE931367FF7D0AC5046099914
:1057080030AA01F041F900287FF458AC329E33AC3E
:10571800C5E4129B319F012B06F1010607F1010731
:1057280004F1080940F310810123072FCDE93176F0
:105738002560636000F3C682189B0137199A1E44DE
:10574800072FC9E90023CDE9317600F3C88209F1B2
:105758000809129B0022DDE916015C1E0023FBF7F5
:10576800D9F9002840F00E81013701352644072F6A
:10577800CDE93176C9F80050C9F8044000F3F0804B
:1057880009F108091C9B01371E44C9F80430072F8A
:105798002AABCDE93176C9F80030AFDC09F108044D
:1057A8007DE45F460A2B72F1000180F0A582303358
:1057B8008DF86F310123BB460D930DF26F15ECE6A2
:1057C8005046099930AA01F0DFF800287FF4F6ABBB
:1057D800329E33AC49E45046099930AA159301F03A
:1057E800D3F800287FF4EAAB329E159B33AC2EE445
:1057F800102D319B40F31587DFF884811027DDF8E1
:105808002490CDF8548004E0103D102D04F10804D4
:1058180015DD01331036072BC4E90087CDE9313691
:10582800F2DD4946504630AA01F0AEF800287FF470
:10583800C5ABDDE93136103D102D33ACE9DC013361
:10584800159A2E44072BC4E90025CDE931367FF798
:105858002FAC5046099930AA01F096F800287FF439
:10586800ADAB329E24E42799002940F3ED80DDE9B1
:1058780011839845A8BF9846B8F1000F0ADD319BFF
:1058880046440133072BC4E900583296319300F39C
:1058980044860834119FB8F1000FA8BFA7EB08078A
:1058A800002F00F30183DDF844901BF4806FA944B6
:1058B80040F05D85279B129A9342C0F2E3811BF06A
:1058C800010F40F0DF81129AAF18A7EB0907D51A2C
:1058D800AF42A8BF2F46002F0BDD319B3E4401335A
:1058E800072BC4F8009067603296319300F348861E
:1058F8000834002FA8BFED1B002D7FF7D0AB102D6B
:10590800319B7FF7EFAEDFF874901027DDF8248025
:10591800CDF8549004E00834103D102D7FF7E4AE24
:1059280001331036072BC4E90097CDE93136F2DD93
:105938004146504630AA01F027F800287FF43EABD4
:10594800DDE9313633ACE7E71BF0010F7FF4ECAE4D
:105958000123072FCDE93176256063607FF712AF09
:105968005046099930AA01F00FF800287FF426ABB9
:10597800DDE931760DF1CC0904E700BFE0A50008A8
:10598800F0A50008129B012B7FF7FCAE112B40F30A
:105998007387AB4BCDF828B010259B46DDF82480E3
:1059A800159305E009F10809103C102C40F3C18259
:1059B80001371036072FC9E900B5CDE93176F1DD99
:1059C8004146504630AA00F0DFFF00287FF4F6AACF
:1059D800DDE931760DF1CC09E6E75046099930AAA0
:1059E80000F0D2FF00287FF4E9AA329E33ACFFF71B
:1059F80046BB0F9951F8043B0F9117F010014FD196
:105A080017F0400047D00A469BB201217DE40F9968
:105A180051F8043B0F911BF010017FF473AC1BF09D
:105A2800400000F095820A469BB26BE4099DA86D80
:105A3800FEF70EFDB5F90C206B6EFFF789B91BF068
:105A4800010F3FF42CAB59E501236360319B7D4A7C
:105A580001330136072B32963193226000F32E85ED
:105A68000834002940F04682129A0BF001031343D0
:105A78003FF415AB189B199A1E44C4E90023319BC7
:105A880032960133072B319300F32E8304F1080279
:105A980041E25CAD81E517F400721CBF0246DBB23F
:105AA800012132E41BF4007F40F0EB82DA17114643
:105AB8000029BFF6FEAB5B425F464FF02D004FF06A
:105AC800010162EB420221E41BF0100F40F0E68175
